:020000040000FA
:10000000E80A0010C5010000CD010000297D0000B4
:10001000D1010000D3010000D50100009EF3FFEFE5
:10002000000000000000000000000000D7010000F8
:10003000D901000000000000737C000021020000D4
:10004000DF010000DF010000DF010000DF01000030
:10005000DF0100001F330000DF0100005D330000FE
:10006000DF010000DF010000DF010000DF01000010
:10007000DF01000000000000DF010000DF010000E0
:10008000DF010000DF010000DF010000DF010000F0
:10009000DF010000DF010000DF010000DF010000E0
:1000A000DF010000DF010000A3210000DF010000EC
:1000B000DF01000049240000DF010000DF01000033
:1000C000DF010000DF010000DF010000DF010000B0
:1000D000DF010000DF010000DF010000DF010000A0
:1000E000DF01000000F002F800F05CF80AA090E8E0
:1000F000000C82448344AAF10107DA4501D100F0E3
:1001000051F8AFF2090EBAE80F0013F0010F18BF53
:10011000FB1A43F001031847709000009090000014
:100120000A444FF0000C10F8013B13F0070408BF1D
:1001300010F8014B1D1108BF10F8015B641E05D0BB
:1001400010F8016B641E01F8016BF9D113F0080F70
:100150001EBF10F8014BAD1C0C1B09D16D1E58BF02
:1001600001F801CBFAD505E014F8016B01F8016B39
:100170006D1EF9D59142D6D37047000000230024AC
:1001800000250026103A28BF78C1FBD8520728BFA7
:1001900030C148BF0B6070471FB508F0ECFB1FBDB6
:1001A00010B510BD08F0B5FB1146FFF7F5FF03F0E1
:1001B000CFF908F0D3FB03B4FFF7F2FF03BC08F05C
:1001C000D3FB00000948804709480047FEE7FEE7E7
:1001D000FEE7FEE7FEE7FEE7FEE7FEE7FEE7FEE7F7
:1001E00004480549034A054B70470000CF0500004D
:1001F000E5000000E8060010E80A0010E80600101C
:1002000010B5002807DACA06140E1F4A00F00F03C3
:100210001B1FD45403E0CA06130E1C4A135410BD0E
:1002200010B505F091F903F0AEF905F09CF910BD99
:1002300010B5002014491039086015480068642181
:10024000B0FBF1F0441EB4F1807F00D311E024F044
:100250007F40401E4FF0E02148611F214FF0FF30EA
:10026000FFF7CEFF00204FF0E021886107200861F2
:1002700000BF1F216FF00100FFF7C2FF03F08DF8F0
:1002800004A005F0ACFD10BD18ED00E000E400E0B6
:1002900000000010756172743000000010B5044653
:1002A0000BA005F027FD10BD1CB514200A214FF44A
:1002B00000630022CDE90010AFF21F0109A006F093
:1002C00078FF044614B1204606F011FF00201CBD43
:1002D00048656C6C6F2052542D54687265616421BE
:1002E0000A000000696E69740000000070477047E2
:1002F000704700000048704788060010FFFFFFFFAE
:1003000030B5E748006810F4807F6BD1E54800689D
:1003100010F0010F2CD1E248006810F01F0F01D13E
:10032000002006E0DE48006800F01F00DE49B1FB57
:10033000F0F0DE490860DE48006810F01F0F01D1C0
:10034000002006E0DA48006800F01F00D649B1FB43
:10035000F0F0D8490860D848006800F0010000F1CA
:100360000100D2490968B1FBF0F0D4490860B6E059
:10037000D348006810F0400F07D10020CB49086037
:10038000CC490860CD490860A9E0C548006810F074
:100390001F0F01D1002006E0C148006800F01F00D7
:1003A000C149B1FBF0F0C1490860C148006810F0D4
:1003B0001F0F01D1002006E0BD48006800F01F00BB
:1003C000B949B1FBF0F0BB490860BB48006800F0D8
:1003D000010000F10100B5490968B1FBF0F0B7492F
:1003E00008607CE0B748006810F4807F07D10020E7
:1003F000AE490860AF490860B04908606FE0A9489D
:10040000006810F0010F2ED1AE4C246804F01F04D8
:1004100004F10100AC4CD4F8044104F01F01A44CD9
:10042000246804F01F02A84CD4F8004104F0010431
:1004300004F1010309B9002403E09B4C4443B4FBDD
:10044000F1F49A4D2C600AB9002403E0964C444321
:10045000B4FBF2F4974D2C60944C2468B4FBF3F495
:10046000964D2C603BE09648006810F0400F07D195
:1004700000208E4908608F490860904908602EE08E
:10048000904C246804F01F0404F101008E4CD4F851
:10049000044104F01F01864C246804F01F028A4CBA
:1004A000D4F8004104F0010404F1010309B9002467
:1004B00003E07D4C4443B4FBF1F47C4D2C600AB95D
:1004C000002403E0784C4443B4FBF2F4794D2C60F3
:1004D000764C2468B4FBF3F4784D2C6000BF7B4865
:1004E000006810F4807F31D07848006810F01F0059
:1004F00004D0042806D0062823D104E00020744943
:10050000086022E000BF6F4A126802F01F0202F189
:1005100001006D4AD2F8082102F01F01614A1268F9
:1005200012F0010F06D0604A4243B2FBF1F2684B71
:100530001A6005E05C4A4243B2FBF1F2644B1A6078
:1005400003E000206249086000BF24E05F480068C3
:1005500010F4007F1CD05348006810F0010F0BD03E
:100560005C48006800F01F0000F101004E4900FBEC
:1005700001F0574908600EE05248006800F01F0083
:1005800000F10100484900FB01F05149086002E018
:1005900000204F49086030BD70B54F484F4A131DC9
:1005A0004FF0000C14681D684D4EB44205D1A5F102
:1005B0008856113E01D1012600E00026B446BCF168
:1005C000000F03D0016841F47001016070BD00B5F7
:1005D000FFF7E2FF20203A49086000BF3848006872
:1005E00010F0400FFAD001202E4908604FF00A00A9
:1005F0003549C1F884004FF001003A4908604FF0D6
:10060000AA00394908604FF05500086000BF2D4826
:10061000006810F4806FFAD02320344908604FF04E
:1006200001002949C1F8A0004FF0AA003049086034
:100630004FF055002449C1F8AC0000BF25480068C0
:1006400010F4806FFAD040F201101549086040F2B2
:1006500001201D49C1F808014FF00100164908604A
:100660004FF00200234908601149086022482349DD
:1006700008604FF480701449C1F8C8010846D0F8EA
:10068000B00140F003001E49086045F23A000E49EF
:1006900008604FF000001B490860FFF731FE00BD05
:1006A00004C10F400CC10F40001BB7000000001038
:1006B000A8C10F400400001000C10F400800001046
:1006C000A0C10F4088C00F4000C00F4008C10F40BC
:1006D0000C000010A8C00F4088ED00E040EF00E0E3
:1006E0002100111080C00F408CC00F40A4C00F40EB
:1006F000ACC00F40B4C10F40DE872804C4C00F4017
:10070000B0C10F4008ED00E070B506460D4636B1A9
:10071000012E12D0022E1ED0032E3ED129E04448D5
:10072000006820F01F0405F01F0040EA040441485F
:10073000C0F80441FFF7E4FD31E03F48006820F0D5
:100740001F0405F01F0040EA04043A48C0F8A8411D
:10075000FFF7D6FD23E03948006820F0010405F0DA
:10076000010040EA04043348C0F80041FFF7C8FD27
:1007700015E03348006820F01F0405F01F0040EA30
:1007800004042C48D0F8080105F01F0140EA0100DC
:100790002B490860FFF7B4FD01E000BFFEE700BF92
:1007A00070BD014631B1012907D0022908D00329C3
:1007B0000CD108E023480068704723480068FBE735
:1007C00022480068F8E722480068F5E700BFFEE726
:1007D000012907D11F4A126842EA0002154BC3F8EB
:1007E000C42007E031B91B4A126822EA0002114B0B
:1007F000C3F8C420704700201749086030BF704715
:1008000004201649086000201349086030BF704773
:1008100004201249086001200F49086030BF70476A
:1008200004200E49086003200B49086030BF704760
:1008300004C10F4000C00F40A8C10F4000C10F40CD
:1008400008C10F4000000010040000100800001054
:100850000C000010C4C00F40C0C00F4010ED00E0FD
:1008600010B501214807FFF7B3FF0020D249086007
:10087000D249C1F83001D2490860D2490860D24952
:100880000860D2490860D2490860D24908604FF038
:10089000FF00CA498860086110BD70B50146C748AD
:1008A000C06901250E68B540EDB2284201D0002094
:1008B00070BDC94D086855F8202001200D68A8407A
:1008C000C0B2BE4DA86001200D68A840C0B2BB4DAB
:1008D00028610020D0601061086A9060486907288C
:1008E0007ED2DFE800F0041B436B961C4400C8680E
:1008F0001060086950604868C0F30B0040F4103085
:100900008D6805F0070540EA85408D6805F007050C
:1009100040EA455040F00C40D0607CE000BFC86821
:100920001060AE4DC86955F820005060AC4DC869E4
:10093000285C00F00705486865F31F30A84ECD69B4
:10094000755D05F0070540EAC530A64ECD69755DB9
:1009500005F0070540EA8540CD69755D05F007059E
:1009600040EA455040F00440D06054E000BF9B4D49
:10097000886955F82000106008695060984D8869B2
:10098000285C00F00705486865F31F30944E8D69B8
:10099000755D05F0070540EAC530924E8D69755DBD
:1009A00005F0070540EA85408D69755D05F007058E
:1009B00040EA455040F00840D0602CE0874D8869FF
:1009C00055F820001060C86955F820005060844D2B
:1009D0008869285C00F00705486865F31F3000E06F
:1009E00017E07F4ECD69755D05F0070540EAC5301B
:1009F0007C4E8D69755D05F0070540EA8540CD693F
:100A0000755D05F0070540EA455040F00040D060B4
:100A100001E000204CE700BF886908281BD08869E6
:100A2000092818D088690F280BD96F48D0F8C4015D
:100A30008D69103D0126AE4030436B4DC5F8C401B1
:100A400009E06948D0F8C40101258E69B540A84382
:100A5000654DC5F8C401C86908281BD0C8690928B4
:100A600018D0C8690F280BD95F48D0F8C401CD69E8
:100A7000103D0126AE4030435B4DC5F8C40109E08E
:100A80005948D0F8C4010125CE69B540A843564D58
:100A9000C5F8C4010120494D286300BF4748006BD9
:100AA00010F0010FFAD08B690F2B02D9A3F11000BF
:100AB00000E018460346CC690F2C02D9A4F11000BF
:100AC00000E020460446486900F007004FF4404526
:100AD00045EAC02003F01F0540EA450004F01F0569
:100AE00040EA851010610120E2E602463A4B53F8D5
:100AF0002200012904D1036943F00103036103E0EB
:100B0000036923F00103036170470246052A3BD2C3
:100B1000DFE802F0030E19242F00284800680123A3
:100B20008B40DBB2184201D0012070470020FCE767
:100B30002248436801208840C0B2034201D001200E
:100B4000F3E70020F1E71D48C06801238B40DBB2CA
:100B5000184201D00120E8E70020E6E71748836942
:100B600001208840C0B2034201D00120DDE700200F
:100B7000DBE71248406901238B40DBB2184201D009
:100B80000120D2E70020D0E70C48C369012088404B
:100B9000C0B2034201D00120C7E70020C5E728B951
:100BA00001228A40D2B2054B9A6004E001228A40B9
:100BB000D2B2024B1A6170471001082000000820D1
:100BC000500108207001082090010820B001082081
:100BD000D0010820F0010820900000101000001043
:100BE00080890000A089000000C00F4010B50246B7
:100BF000002001EB4213F74C04EB830010BD0246CA
:100C00000520062A4AD2DFE802F0032F393A3B3D9D
:100C1000062907DD0A2901DB0B2903DD0E2903DB89
:100C2000162901DC00201EE00C2905D00D2903D077
:100C3000172903DB1A2901DC012014E01D2903D048
:100C40001E2901D01F2901D102200CE01B2901D04F
:100C50001C2901D1032006E0072903D0082901D06F
:100C6000092900D104201AE01D2901DC002004E03C
:100C70001E2901D01F2900D1012010E000BF00BFB4
:100C800000200CE0012901DD042901D1002004E04D
:100C9000022901D0032900D1032000E000BF00BFDA
:100CA00070472DE9F0410646884615460024414626
:100CB0003046FFF7A4FF0746052F02D1C648BDE81E
:100CC000F08141463046FFF791FF0446206820F04E
:100CD0000700206005F0070120680843206000201D
:100CE000EDE72DE9F04107468846164600244146C7
:100CF0003846FFF784FF0546052D02D1B648BDE80A
:100D0000F08135B1012D04D0042D02D0B248401C31
:100D1000F5E741463846FFF769FF0446206820F0B2
:100D200018002060182101EAC601206808432060ED
:100D30000020E4E72DE9F0410746884616460024E6
:100D400041463846FFF75BFF0546052D02D1A24814
:100D5000BDE8F08125B1042D02D09F48401CF7E783
:100D600041463846FFF742FF044626B9206820F086
:100D70002000206003E0206840F020002060002078
:100D8000E6E72DE9F041074688461546002441462E
:100D90003846FFF734FF0646052E02D18E48BDE8DF
:100DA000F081022E02D18C48401CF8E741463846BB
:100DB000FFF71CFF044625B9206820F040002060A2
:100DC00003E0206840F0400020600020E7E72DE9C4
:100DD000F041074688461646002441463846FFF74C
:100DE0000EFF0546052D02D17B48BDE8F08125B1F7
:100DF000042D02D07848401CF7E741463846FFF7FB
:100E0000F5FE044626B9206820F40070206003E057
:100E1000206840F4007020600020E6E72DE9F041F2
:100E2000074688461546002441463846FFF7E7FE48
:100E30000646052E02D16848BDE8F081032E02D097
:100E40006548401CF8E741463846FFF7CFFE0446A8
:100E500025B1206820F48070206003E0206840F411
:100E6000807020600020E7E72DE9F04107468846C2
:100E70001546002441463846FFF7C1FE0646052EBA
:100E800002D15548BDE8F081032E02D05248401CE3
:100E9000F8E741463846FFF7A9FE044625B1012D83
:100EA0000CD0022D1ED113E0012241463846FFF737
:100EB000B5FF206820F40070206016E00022414653
:100EC0003846FFF7ABFF206820F4007020600CE08C
:100ED000012241463846FFF7A1FF206840F4007028
:100EE000206002E04FF0FF30CCE700BF0020C9E7F0
:100EF0002DE9F0410746884616460024414638460B
:100F0000FFF77DFE0546052D02D13348BDE8F0818F
:100F100035B1012D04D0042D02D02F48401CF5E737
:100F200041463846FFF762FE044626B9206820F4A1
:100F30008060206003E0206840F480602060002032
:100F4000E4E72DE9F041074688461546002441466E
:100F50003846FFF754FE0646052E02D11E48BDE86E
:100F6000F081012E02D01C48401CF8E7414638466B
:100F7000FFF73CFE044625B1206820F08000206089
:100F800003E0206840F0800020600020E7E72DE9C2
:100F9000F04105460E461746002431462846FFF725
:100FA0002EFE8046B8F1050F02D10B48BDE8F08156
:100FB0000DB91A2E02D00848401CF7E731462846E2
:100FC000FFF714FE04464FB1206840F480302060E3
:100FD00008E0000000C0024001000010206820F47A
:100FE000803020600020E1E72DE9F0410746884687
:100FF0001646002441463846FFF701FE0546052DFA
:1010000002D10D48BDE8F081012D04D0042D02D09D
:101010000948401CF6E741463846FFF7E7FD04461D
:1010200026B1206820F48070206003E0206840F43E
:10103000807020600020E5E70100001001460020DC
:1010400021B1022904D0032906D103E0F84804E0C5
:10105000F84802E0F84800E000BF00BF70472DE903
:10106000F34F95B08A4600200A900120FFF799FBC4
:1010700009904FF0FF300490002007900690002167
:101080000C460D46012654E00020089049E00898DF
:10109000304400FB0AF0029000201C220999CDE99F
:1010A0000D0108460D9907F00EFC0022A0FB063743
:1010B00001FB067100FB0210CDE9003000239DE822
:1010C000070007F089FB80468946CDF8148020226E
:1010D00040464946CDE90B9807F008FC8346059841
:1010E000B0F1004F04D90598404205900BF1010B77
:1010F000BBF1000F02D0BBF5803F00D90EE0DDE967
:101100000410884209D20598049000255C4608988E
:1011100007900696049800B906E000BF0898401CA6
:1011200008900898B042B2D300BF049800B902E01A
:10113000761C0F2EA8D900BF0021084661406840E8
:10114000014303D1002017B0BDE8F08F09980009D2
:10115000069900FB01F7079808440021A0FB04232F
:1011600001FB043100FB05100346CDE900203846A1
:10117000002107F031FB03900398824504D90398BE
:10118000AAEB0000049003E00398A0EB0A0004908F
:10119000642004994143B1FBFAF0049004980328B9
:1011A00069D2159801281FD1A448007B40F0800027
:1011B000A2490873082220462946CDE90F5407F0BA
:1011C00095FB9E4908710C700846007B00F07F007B
:1011D0000873F020069900EA0110079901F00F0149
:1011E00008439649886244E01598042821D1944820
:1011F000C06840F080009249C86008222046294615
:10120000CDE9115407F072FBC0B28D494860E0B2DD
:1012100008600846C06800F07F00C860F0200699AA
:1012200000EA0110079901F00F0108438449886220
:101230001FE01598FFF702FF0746387B40F080005B
:101240003873082220462946CDE9135407F04EFB97
:1012500038713C70387B00F07F003873F0200699BD
:1012600000EA0110079901F00F01084387F82800F0
:1012700000BF01200A900A9865E72DE9F041064673
:101280000F46052E3CD2DFE806F0033C04056C0057
:1012900000BF00BF3046FFF7D1FE054626B9012149
:1012A0000820FFF795FA0CE0022E04D10121080670
:1012B000FFF78EFA05E0032E03D101214806FFF760
:1012C00087FA072028720020287200E02C78287DF9
:1012D00010F0010FFAD1802085F8300000BF287D82
:1012E00010F0200FFBD0002085F8300068602873D4
:1012F000286285F84C0085F8540085F850002C7D54
:1013000057E001211020FFF763FA07204B490872CC
:101310000020087201E0494804784848007D10F038
:10132000010FF8D180204749087000BF4348007D75
:1013300010F0200FFAD00020424908703F49486061
:101340000873086281F84C003F4908703B4981F8F6
:1013500050000846047D4FF0000008740846047EE3
:1013600027E001210802FFF733FA0720344988609B
:101370000020886001E0324804683148406910F07C
:10138000010FF8D101202E49C86500BF2C484069E3
:1013900010F0200FFAD000202949C8654860C860C5
:1013A0000862C864486508650846446900204862C8
:1013B00000BF00BF30463968FFF751FE012E04D14F
:1013C0001E48007B00F0C0040EE0042E04D11C482F
:1013D000C06800F0C00407E03046FFF72FFE054666
:1013E000287B00F0C00400BF787930B1012806D016
:1013F000022807D0032808D108E000BF09E044F024
:10140000010406E044F0020403E000BF44F00304DA
:1014100000BF00BF387930B344F0080438790128A0
:1014200014D0022814D0032815D0042819D115E0AF
:1014300000C000400080094000C009400000014099
:1014400000400A40300001405400014000BF09E064
:1014500044F0100406E044F0200403E044F03004BB
:1014600000E000BF00BFB87928B1012802D144F0E4
:10147000040401E000BF00BF00BF012E02D1FA4901
:101480000C730BE0042E03D1E0B2F849C86005E00C
:101490003046FFF7D3FD05462C7300BFBDE8F08151
:1014A00070B504460E46012E1DD1012C07D1F0481F
:1014B000007840F08000EC4981F830002FE0042CE7
:1014C00006D1EA48C06D40F00100E849C86526E051
:1014D0002046FFF7B3FD054695F8300040F0800048
:1014E00085F830001BE0012C07D1E14800784FF06F
:1014F0000000DD4981F8300011E0042C05D1DB4803
:10150000C06D0020D949C86509E02046FFF796FD67
:10151000054695F83000002085F8300000BF70BD0A
:1015200010B5044600212046FFF7BAFF24B9002178
:101530000820FFF74DF91BE0012C04D100211020F9
:10154000FFF746F914E0022C04D10021E005FFF773
:101550003FF90DE0032C05D100214FF00070FFF79B
:1015600037F905E0042C03D10021A001FFF730F981
:1015700010BD4FF4E131016003214171002101717F
:1015800081717047052813D2DFE800F00306090CCB
:101590000F00B84A11700BE0B34A117008E0B64A68
:1015A000117005E0B54A117002E0B04A116000BF49
:1015B00000BF70470146052914D2DFE801F0030699
:1015C000090C0F00AB4800787047A7480078FBE78C
:1015D000A9480078F8E7A9480078F5E7A34800682B
:1015E000C0B2F1E70020EFE72DE9FF4F0746914633
:1015F0009A46019E4FF0000B052F1DD2DFE807F041
:1016000003080D121700DFF86CB20BF1140B13E096
:10161000DFF854B20BF1140B0EE0DFF85CB20BF103
:10162000140B09E0DFF854B20BF1140B04E0DFF8FF
:101630003CB20BF1140B00BF00BF4B46BAF1010FD7
:1016400024D100241FE04FF0FF3805E0B8F1000F6F
:1016500000D106E0A8F10108DBF8000010F0200F2F
:10166000F4D000BFB8F1000F00D10EE0102507E064
:1016700016F8011B3846FFF785FF6D1E5B1E641CC4
:101680000DB1002BF4D1002BDDD119E0002414E0C2
:1016900003B914E0DBF8000010F0200F00D10EE0D9
:1016A000102507E016F8011B3846FFF76BFF5B1E9D
:1016B0006D1E641C0DB1002BF4D1002BE8D100BFCE
:1016C000204604B0BDE8F08F2DE9F04705460F46EF
:1016D000904699463C464FF0000A052D1DD2DFE8A2
:1016E00005F003080D121700DFF888A10AF1140AAB
:1016F00013E0DFF874A10AF1140A0EE0DFF878A114
:101700000AF1140A09E0DFF874A10AF1140A04E0EE
:10171000DFF858A10AF1140A00BF00BF4246B9F130
:10172000010F19D1002314E04FF0FF3602E006B993
:1017300005E0761EDAF8000010F0010FF7D000BFC8
:1017400006B908E02846FFF735FF04F8010B521EE2
:101750005B1C002AE8D111E000230CE0DAF800005D
:1017600010F0010F00D108E02846FFF723FF04F82E
:10177000010B5B1C521E002AF0D100BF1846BDE8C9
:10178000F087052827D2DFE800F0030A11181F00B0
:101790003849097B41F04001364A11731BE0324958
:1017A000097B41F04001304A117314E03249097B52
:1017B00041F04001304A11730DE03049097B41F09E
:1017C00040012E4A117306E02849C96841F04001E2
:1017D000264AD16000BF00BF704770B503460C4673
:1017E00000218C46052B1DD2DFE803F003080D1203
:1017F00017002049091D40F2073C13E01A49091D52
:1018000040F28F3C0EE01C49091D40F2073C09E004
:101810001A49091D40F2073C04E01449091D40F231
:10182000073C00BF00BF072C15D2DFE804F0040618
:10183000080A0C0E110001200DE002200BE004202C
:1018400009E0082007E0802005E04FF4807002E006
:101850004FF4007000BF00BF012A11D10D6800EAEB
:101860000C0635430D6010E00000014000400A40C6
:101870003000014000C000400080094000C0094025
:101880000D682CEA000635400D6070BD0146052943
:1018900014D2DFE801F00306090C0F00FE48007DBA
:1018A0007047FE48007DFBE7FD48007DF8E7FD48F6
:1018B000007DF5E7FC484069C0B2F1E70020EFE7A2
:1018C0000146052922D2DFE801F003090F151B00AC
:1018D000F148806840F2CF3210407047EF4880688E
:1018E00040F2CF321040F8E7ED48806840F2CF3246
:1018F0001040F2E7EB48806840F2CF321040ECE74E
:10190000E948806840F2CF321040E6E70020E4E783
:101910000146002205291DD2DFE801F003080D125F
:101920001700DD48007D00F0400213E0DB48007D39
:1019300000F040020EE0DA48007D00F0400209E0CD
:10194000D848007D00F0400204E0D748406900F02C
:10195000400200BF00BF12F0400F01D000207047CE
:101960000120FCE710B50246002040F00100CB78D2
:1019700033B1012B06D0022B07D0032B08D108E08E
:1019800000BF09E040F0400006E040F0800003E0C6
:1019900000BF40F0C00000BF00BF4B78012B01D159
:1019A00040F004000B78012B01D140F002008B784D
:1019B000012B01D140F00800052A1DD2DFE802F01A
:1019C00003080D12170000F0CF03B34C237213E08D
:1019D00000F0CF03B14C23720EE000F0CF03B04C07
:1019E000237209E000F0CF03AE4C237204E000F054
:1019F000CF03AD4CA36000BF00BF10BD00218170BC
:101A0000C17001210170417070472DE9F041074616
:101A1000884615460026012D0BD198F800000128B4
:101A200001D146F0020698F80100012801D146F0E4
:101A30000406012F19D1012D13D19848007B40F0E5
:101A40008000964908730020087008710846007BE2
:101A500020F0800008731020886246F001000862C0
:101A60003AE000208D49086236E0042F19D1012D9B
:101A700013D18D48C06840F080008B49C8600020B9
:101A8000086048600846C06820F08000C8601020E8
:101A9000886246F0010008621EE000208249086268
:101AA0001AE03846FFF7CAFA0446012D11D1207B0F
:101AB00040F080002073002020702071207B20F0F7
:101AC00080002073102084F8280046F00100206276
:101AD00001E00020206200BFBDE8F08170B505463E
:101AE0000C46012D05D16D48006A20436B49086200
:101AF0000FE0042D05D16C48006A20436A49086252
:101B000007E02846FFF79AFA0646306A204330621B
:101B100000BF70BD042800D07047012906D1624A79
:101B2000526A42F00202604B5A6206E029B95E4AEC
:101B3000526A02F03D025C4B5A6200BFECE7042897
:101B400000D07047012906D1574A526A42F001027B
:101B5000554B5A6205E0544A526A02F03E02524B1B
:101B60005A6200BFEDE730B5042800D030BD4C0705
:101B7000A30E4D4C646A24F0380243F0040422435F
:101B800002F03F04484D6C6200BFEFE730B5002320
:101B9000012800D030BD11B1012904D101E0012399
:101BA00002E0022300E000BF00BF012A05D13B4C48
:101BB000247C1C43394D2C7406E0384C247CF325DE
:101BC0009D432C40354D2C7400BFE3E730B50346F0
:101BD000012B00D030BD21B1012904D0022906D14A
:101BE00003E0102004E0402002E0802000E000BF7D
:101BF00000BF012A05D1294C247C0443274D2C74B5
:101C000006E0264C247CF32585432C40234D2C7480
:101C100000BFDFE70146012901D0002070471F48BF
:101C2000007EFBE72DE9F05F83460C460025BBF103
:101C3000010F08D1194F5437A7F10409174E0C367C
:101C4000A9F1040A18E0BBF1040F08D1164F54376C
:101C5000A7F10409144E0C36A9F1040A0CE0584609
:101C6000FFF7ECF9804608F1540708F1500908F134
:101C70000C0608F14C0A00BFE07801281BD145F0A2
:101C800010056079012801D145F02005207901284F
:101C90000FD1BBF1010F09E000C00040000001407E
:101CA0000080094000C0094000400A4001D145F0D1
:101CB0000805E07938602078012801D145F0010558
:101CC000A078012804D145F00405A079C9F80000E6
:101CD000607808B945F0020505F03F00CAF8000039
:101CE000306840F038003060BDE8F09F2DE9F041E9
:101CF00005460E46012D01D1394C0AE0042D01D1D3
:101D0000384C06E02846FFF799F9074607F15404D6
:101D100000BF012E04D1206820F00200206003E003
:101D2000206840F002002060BDE8F0812DE9FF4FFF
:101D300081B006468B469946012E04D1284C483C7A
:101D4000274D403D0FE0042E04D1264C483C254D44
:101D5000403D08E03046FFF771F982460AF10C0475
:101D60000AF1140500BFB9F1000F14D02068C7B202
:101D7000B84628F01008C4F80080012359463046C0
:101D8000039AFFF731FC009000BF286810F0400F65
:101D9000FBD027600BE0012359463046039AFFF73A
:101DA00023FC009000BF286810F0400FFBD0009883
:101DB00005B0BDE8F08F13B5044601231A4601A90A
:101DC0002046FFF7B3FF1CBD70B504460D4616460E
:101DD0000023324629462046FFF7A8FF70BD0000C9
:101DE0005400014054400A40012807D1FC49C96B06
:101DF00040F21A721143FA4AD16306E0F849C96BFE
:101E000040F21A729143F64AD1637047012807D114
:101E1000F349C96B40F22A721143F14AD16306E0DB
:101E2000EF49C96B40F22A729143ED4AD163704782
:101E300070B503460C4600218C460CB9002070BDDD
:101E40003FE0E748416B11F0040F11D041F004006E
:101E5000E34EB0630020F060401EB0604FF0000C15
:101E600001E00CF1010CBCF1100FFAD30846E6E7D3
:101E700011F0010F1DD041F00100D94EB063304682
:101E8000C06800F03F05012D03D0292D01D00C2D95
:101E90000DD10020D24EF060401EB0604FF0000C1B
:101EA00001E00CF1010CBCF1100FFAD30AE0084676
:101EB000C5E711F0400F04D041F04000C84EB063B8
:101EC00000E0BEE700BFC648006900F03F0098424E
:101ED0000BD0012B09D0292B07D0022B05D0092BC1
:101EE00003D04FF0FF310846A9E79AB1012C03D186
:101EF000BB48406910600DE0022C0BD1B848406926
:101F00001060B74880695060B548C0699060B448B7
:101F1000006AD060002092E72DE9F04102460021DE
:101F2000166857689468D2F80CC00FE00020DFF8FC
:101F3000B082C8F80C00002300E05B1C102BFCD31F
:101F400045F40060DFF89882C8F83800A448456B73
:101F500015F4006FEAD106F03F00014314B921F0F7
:101F6000C00108E0012C02D141F0400103E0022C45
:101F700001D141F0C001BCF1010F02D121F4807107
:101F800001E041F4807141F4806140F2FF70DFF8BC
:101F90005082C8F8380040468760C160002300E0E6
:101FA0005B1C102BFCD300BF8D48406B0028FBD07E
:101FB00000BF8B48406B10F4006FFAD10020BDE8E1
:101FC000F0812DE9F0410446D4F80080A668276925
:101FD0002046FFF7A1FF07B936B13A4631464046E1
:101FE000FFF726FF054600E001252846BDE8F08101
:101FF0002DE9F04189B004464FF001081CB90020DA
:1020000009B0BDE8F0817748006890F8480058B101
:102010007448006890F84800022805D071480068AC
:1020200090F84800032802D16F48066801E04FF499
:10203000803620250D20009001960120029003900B
:1020400005A804900CE06846FFF7BBFF074617B1F0
:102050004FF0010803E0059820600020D0E76D1ED6
:10206000002DF0D14046CBE7F8B5044601264FF6E7
:10207000FF7519E06846FFF7BBFF00B116E0009856
:1020800010F4807F01D108260DE00098C0F34320B2
:10209000A04206D00098C0F34320072803D00120B7
:1020A000F8BD0020FCE76D1E002DE3D100BF3046D7
:1020B000F6E770B58AB005460E4614464FF4007038
:1020C0000290022003900694002009900196052CAE
:1020D00008D10495424880300590002007900120E7
:1020E00008900DE0062C08D13D48803004900595FD
:1020F000012007900020089002E000200AB070BD87
:1021000001A8FEF7CAFB0121F0B2FEF7EEFC1A208F
:1021100001F060F80120F1E710B500210846FEF754
:10212000F4FCE0B100210120FEF7EFFC40B10021FA
:102130000846FEF734FD2D480068401C2B49086016
:1021400000210220FEF7E1FC50B300210120FEF740
:1021500026FD27480068401C2549086020E0012131
:102160000020FEF7D2FCD8B101210846FEF7CDFCD5
:1021700040B101210020FEF712FD1E480068401CFE
:102180001C49086001210220FEF7BFFC40B101217B
:102190000846FEF704FD18480068401C1649086010
:1021A00010BD10B503F0D0F9FFF7B6FF03F0DBF96F
:1021B00010BD10B50021114B1A68022303FB002348
:1021C0005B1E4400B3FBF4F101B1491E044B5B6894
:1021D00023F0FF0343F480730B43014C636010BD95
:1021E00000000C40C8000010CC000010B800001027
:1021F000BC000010C0000010C4000010040000105B
:10220000F0B589B00027FE48006890F8480058B142
:10221000FB48006890F84800022805D0F84800689C
:1022200090F84800032802D1F648056800E0002530
:10223000142437200090019501200290039005A8F6
:1022400004900EE06846FFF7BCFE06460EB101277B
:1022500006E0059810F0200F01D0002703E00827C2
:10226000641E002CEED100BF384609B0F0BDF0B5B9
:1022700089B00546012720260620009001950120FF
:102280000290039005A804901FE00420FFF7ECFEE5
:10229000074617B1384609B0F0BDFFF7B1FF80B966
:1022A0006846FFF78EFE04460CB1012709E0D649C7
:1022B0000598084201D00820EDE70420FFF7D4FE7E
:1022C000E9E7012005F0C0F8761E002EDDD1384682
:1022D000E1E770B50446002534B9CC48406820F4E5
:1022E0000060CA49486008E0012C06D1C748406830
:1022F00040F40060C54948600A25C148006890F86C
:10230000480058B1BE48006890F84800022805D03F
:10231000BB48006890F84800032805D12846FFF71D
:10232000A6FF08B1012070BD0020FCE7012806D1FE
:10233000B649096841F04001B44A116005E0B3496B
:10234000096801F08301B14A1160704710B5AF48C8
:10235000446B40F23A20044229D014F0020F02D01C
:102360000220AA49886314F0080F02D00820A74968
:10237000886314F0100F02D01020A449886314F071
:10238000200F02D02020A149886314F4007F03D0DD
:102390004FF400709D4988630120994909680865D8
:1023A00097490968C86C012102F0DDF84AE014F48D
:1023B000A06F1FD014F4807F13D04FF48070934926
:1023C000886300208E49096808658D490968C86CD2
:1023D000012102F0C8F80020FFF706FD0020FFF7FA
:1023E00015FD14F4806F04D04FF480608749886332
:1023F00010BD27E040F6C50004421FD014F0010FC5
:1024000002D001208149886314F0040F02D0042017
:102410007E49886314F0400F02D040207B498863D6
:1024200014F0800F02D080207849886314F4006F84
:1024300008D04FF400607549886303E07448044293
:1024400000D0D5E700BFD3E710B503F07DF8FFF764
:102450007DFF03F088F810BD00B585B00020009026
:1024600001900290039004906846FFF755FD00200C
:1024700005B000BD70B58AB001267502012001903B
:102480006448029001200390049006A8059014E08F
:1024900001A8FFF796FD044614F0040F01D00226B0
:1024A00007E0069810F0004F01D1082601E0002651
:1024B00005E0012004F0C8FF6D1E002DE8D100BF2B
:1024C00030460AB070BD2DE9F04189B04FF00108E7
:1024D0000126AA2747EA062000EE100A1425082044
:1024E00000908DED010A01200290039005A8049050
:1024F0001BE06846FFF765FD044614F0040F02D0A8
:102500004FF0020810E00598C0B2B84203D0012095
:1025100009B0BDE8F0810598C0F30320B04201D0B6
:102520000120F5E70020F3E76D1E002DE1D14046C4
:10253000EEE7F0B52DED028B89B005460127354851
:1025400040EA857008EE100A7E03292000908DED88
:10255000018A01200290039005A804900020FFF753
:10256000E5FE1FE0FFF74CFE070015D16846FFF7B8
:1025700028FD044614F0040F01D0022711E005984D
:1025800010F0004F01D108270BE00598C0F38070D0
:1025900021490870002707E0384609B0BDEC028BDE
:1025A000F0BD761E002EDDD100BF3846F5E770B5D0
:1025B0008AB004464FF40076022001900020029079
:1025C000022003900120049006A8059041E001A894
:1025D000FFF7F7FC054615F0040F36D194B30698C3
:1025E000000E20700698C0F30F20608006982071BE
:1025F0000798A0600898000E2073DDE908100DE030
:10260000C8000010CC0000100880F8FD00000C404D
:1026100000C40F000080FF00D0000010000E61F326
:102620001F2020610998C0F3045020750998C0F359
:102630000B20E0820998C0F346002076099800F04C
:102640000100607600200AB070BD012004F0FCFE9D
:10265000761E002EBBD10220F5E7F0B587B001272A
:10266000F848006890F8480058B1F648006890F8BB
:102670004800022805D0F348006890F84800032875
:1026800001D1002601E04FF4803620240320019080
:10269000029601200390049006A805902AE001A864
:1026A000FFF78FFC054615F0040F01D002271DE04F
:1026B000069810F4807F01D1082717E00698C0F330
:1026C0004320022801D0082710E04FF6FF7106983A
:1026D00001EA1040DC490860084600680004086010
:1026E0000020FFF723FE002007B0F0BD012004F01A
:1026F000ABFE641E002CD2D13846F5E7D248006804
:102700007047F0B589B00446CE48006890F848009C
:1027100058B1CC48006890F84800022805D0C94854
:10272000006890F84800032802D1C748066801E015
:102730004FF4803620250920009001960220029057
:102740000120039005A804901AE00320FFF78CFCF9
:1027500010B1082009B0F0BD6846FFF732FC07460B
:1027600057B93CB105982060069860600798A06052
:102770000898E0600020EDE7012004F065FE6D1E82
:10278000002DE2D10120E5E7F0B589B00127AD4881
:10279000006890F8480058B1AA48006890F84800CE
:1027A000022805D0A748006890F84800032802D105
:1027B000A548066801E04FF48036202407200090E9
:1027C000019601200290039005A804903BE00320AD
:1027D000FFF74AFC90B10420FFF746FC70B10520DA
:1027E000FFF742FC50B10720FFF73EFC30B1082054
:1027F000FFF73AFC10B1012009B0F0BD6846FFF7C1
:10280000E0FB05460DB1012719E090490598084203
:1028100001D00820F0E70320FFF726FC68B1042070
:10282000FFF722FC48B10720FFF71EFC28B1082063
:10283000FFF71AFC08B10120DEE70020DCE70120E9
:1028400004F002FE641E002CC1D13846D4E7F0B576
:1028500089B005460127202610200090019501200F
:102860000290039005A804901BE00420FFF7FCFBF6
:1028700010B1012009B0F0BD6846FFF7A2FB044685
:102880000CB1012709E071490598084201D00120E7
:10289000F0E70420FFF7E8FBECE7012004F0D4FDAB
:1028A000761E002EE1D13846E4E770B58AB00126E5
:1028B0000420FFF7D9FB10B900200AB070BD202416
:1028C0000C2001900020029001200390049006A8A3
:1028D000059026E00520FFF7C7FB28B10620FFF78B
:1028E000C3FB08B10120E8E701A8FFF76AFB054632
:1028F0000DB1012611E055490698084201D0082083
:10290000DBE70720FFF7B0FB28B10420FFF7ACFBA3
:1029100008B10120D1E70020CFE7012004F094FDA9
:10292000641E002CD6D13046C7E72DE9F0418AB0AD
:1029300004460F464FF00108012F02D919200190DB
:1029400001E01820019020253E48006890F84800DA
:10295000032801D1029401E060020290012003905B
:10296000049006A8059022E00420FFF77DFB18B133
:1029700001200AB0BDE8F08101A8FFF722FB06465E
:1029800016B14FF0010811E030490698084201D015
:102990000120EEE70620FFF767FB28B10420FFF7D0
:1029A00063FB08B10120E4E70020E2E76D1E002D83
:1029B000DAD14046DDE72DE9F0418AB004460F4602
:1029C0004FF00108012F02D91220019001E01120DF
:1029D000019020251B48006890F84800032801D189
:1029E000029401E06002029001200390049006A886
:1029F000059022E00420FFF737FB18B101200AB050
:102A0000BDE8F08101A8FFF7DCFA064616B14FF0E9
:102A1000010811E00D490698084201D00120EEE7B7
:102A20000520FFF721FB28B10420FFF71DFB08B1AB
:102A30000120E4E70020E2E76D1E002DDAD14046D8
:102A4000DDE70000C8000010CC0000100880F8FD91
:102A50002DE9F04303460E46F108A6EBC100C4B2CF
:102A6000C4F1080090420BD9585C20414FF0010896
:102A700008FA02F8A8F1010800EA0800BDE8F083AE
:102A80000027585C2041C4F108094FF0010808FAFA
:102A900009F8A8F1010800EA0807C4F10800C5B266
:102AA000521B4FF0010C0AE001EB0C00185CA8402F
:102AB0000743083A05F10800C5B20CF1010C082AD9
:102AC000F2D852B101EB0C0013F8008001209040C5
:102AD000401E08EA0000A84007433846CEE710B57C
:102AE0000246002008E0135C0C1A641E145D1454A6
:102AF0000C1A641E1355401CB0EB510FF3D310BDDC
:102B0000F0B58BB0002704A8FFF751FDFFF7A5FD36
:102B10006846FFF7F6FD04216846FFF7E0FF042151
:102B200001A8FFF7DCFF042102A8FFF7D8FF04216A
:102B300003A8FFF7D4FF10216846FFF7D0FF4FF43A
:102B40000071FB48006801649DF80F008711012F98
:102B50000BD1162230216846FFF77AFF0446601C2D
:102B60008002F3490968C8631EE00C223E216846D2
:102B7000FFF76EFF044603222F216846FFF768FF28
:102B80000646042250216846FFF762FF0546B01C46
:102B9000012101FA00F0611C41430122AA40514386
:102BA000480AE3490968C863E148006890F94800A9
:102BB00050B3012804D0022821D003284DD11DE0B4
:102BC00005222A216846FFF743FF401CD8490968BF
:102BD0004864042216216846FFF73AFFD449096881
:102BE000496C01FA00F0D24909684864D04800688D
:102BF000406C410ACE48006841642FE000BF0121CB
:102C0000CB480068416429E001222E216846FFF785
:102C10001FFF20B10121C648006841641CE0072263
:102C200027216846FFF714FF401CC1490968486422
:102C3000042216216846FFF70BFFBD490968496C5D
:102C400001FA00F0BA4909684864B9480068406C64
:102C5000410AB7480068416400E000BF00BFFFF7C9
:102C600093FDB348006890F8480058B1B048006838
:102C700090F84800022805D0AD48006890F8480058
:102C8000032806D1AB48FFF794FA0120FFF721FB98
:102C900002E00020FFF71DFBA548006890F84800FF
:102CA00001280AD0A248006890F8480028B1A0483E
:102CB000006890F84800022803D14FF40070FFF735
:102CC000C6FD00200BB0F0BD70B505460024FF2006
:102CD0009749096881F84800611E9548006854309A
:102CE00001F023FAFFF7B8FB00B13AE00020FFF74C
:102CF0001DFB142004F0A8FBFFF7E5FB0446082C9D
:102D000000D12EE094B90120FFF713FC040025D177
:102D100002208749096881F8480087480078E8B1AF
:102D200003208349096881F8480017E00020FFF775
:102D300000FC040004D17E49096881F848000DE0D8
:102D40000120FFF7F3FA142004F07EFBFFF792FB5B
:102D500020B901207649096881F84800FFF7D0FEC4
:102D600000BF73480068543001F0A0FA204670BDDF
:102D70000246002070470146002070472DE9FC41C3
:102D800080460D4616461C4600276002B0F5803F7F
:102D900002D30120BDE8FC814FF0FF316448006898
:102DA000543001F0C2F96548066040F2FF70644992
:102DB00088630020C8620420FFF756F900B12FE0B5
:102DC0000120FFF723F85F485D494862600288628E
:102DD0000120574909680865062201215748006803
:102DE000FFF767F947F09B075548C7622146284619
:102DF000FFF7E1FD00B113E001A84D49009009681B
:102E000032230622C86C012101F020FC012C04D8D9
:102E100047480068006D012801D1FFF746FD00BF5B
:102E200043480068543001F041FA2046B2E72DE9EA
:102E3000FC4705460E4617461C46A9464FF00008BB
:102E40006002B0F5803F02D30120BDE8FC874FF05F
:102E5000FF3109F1540001F068F93B48076040F286
:102E6000FF70374988630020C8620420FFF7FCF830
:102E700000B12FE02F483249486260028862012089
:102E80002B4909680865FEF7AFFF21463046FFF77A
:102E90004CFD00B11EE0052200212B480068FFF721
:102EA00008F948F099082648C0F82C8001A8204964
:102EB0000090096832230622C86C012101F0C6FB8C
:102EC000012C04D81A480068006D012801D1FFF7D1
:102ED000ECFC00BF16480068543001F0E7F92046CA
:102EE000B3E72DE9F04105460F4616462C466DB96D
:102EF0004FF0000840F2FC73144A15A118A002F02C
:102F0000F9FE00BFB8F1000FFCD000BF102F0CD1AC
:102F1000314619B94FF0FF30BDE8F081206C4860B0
:102F2000606C8860E06B086000BF0020F4E7000080
:102F3000C8000010002D3101D0000010B4000010B6
:102F400000000C40404B4C00B0000010C089000055
:102F500064657620213D2052545F4E554C4C000054
:102F60002825732920617373657274206661696C0A
:102F700065642061742025733A2564200A000000EE
:102F800070B50546FDF76CFC9848006820F01F00FE
:102F90009749C1F888000846D0F88C0020F01F003F
:102FA000C1F88C000846D0F8940020F01F00C1F84A
:102FB00094000846D0F8980020F01F00C1F898004F
:102FC0000846D0F89C0020F01F00C1F89C0008467D
:102FD000D0F8AC0020F01F00C1F8AC000846D0F8D3
:102FE000B00000F01F00C1F8B0008248006A41F64E
:102FF000EC0140EA01007F4908624FF48050C86349
:103000004FF40060C8634FF08000C8634FF0400089
:10301000C8634FF0200088634FF00800C8634FF08A
:103020000400C8634FF0140004F00EFA7248D0F8A0
:10303000C40040F080507049C1F8C4006F48406837
:1030400010F4807F0AD06D48406820F480706B498E
:103050004860002400E0641C102CFCD36748006822
:1030600010F0020F07D0002064490860002400E03F
:10307000641C102CFCD300206049C86302205B490B
:1030800008605B49C1F88C005D4908604FF0A20000
:1030900001F10401086001F1040108604FF0020031
:1030A000584908605249C1F8B0005348D0F8A0010F
:1030B00020F00800544908606FF060404F494862B2
:1030C0004FF00000C860044600E0641C102CFCD3E4
:1030D00000204A49C862002400E0641C102CFCD384
:1030E00040F2FF704549886302200860002400E038
:1030F000641C102CFCD3002400E0641CB4F5002FE9
:10310000FBD34248FFF755F83C48006840F0010007
:103110003A490860002400E0641C102CFCD31D20F8
:1031200000F058F8742002F0E3FF39490860742277
:1031300000213748006802F05CFA00222946344832
:103140000068543000F0D9FE0021284601F082F9D1
:103150002F490968C864FF202D49096881F8480093
:1031600001202B490968087400212948006801647E
:10317000002027490968C863002125480068416488
:10318000244823490968086223482149096848629C
:1031900022481F490968886221481D490968C86298
:1031A00020481B49096808631F4819490968486392
:1031B000002017490968886315490968886114491E
:1031C0000968C8610F2229461148006800F024FAF6
:1031D000002070BD00F01F020121914042094FF014
:1031E000E02303EB8202C2F80011704788C002405E
:1031F00000C002400080092000C00F4000000C40C9
:1032000094C00240ACC00240A0C10F40801A06002A
:10321000C8000010C92C0000712D0000772D00009F
:103220007D2D00002F2E0000E32E000010B5002899
:1032300007DACA06140E9D4A00F00F031B1FD45470
:1032400003E0CA06130E9A4A135410BDFEB5054694
:103250000F4655B900262323964A97A19BA002F05A
:1032600049FD00BF002EFDD000BFAC6B01A8FEF7EA
:1032700080F94FF4E1300190207801A9FDF7FDFFBE
:103280006846FEF7BBFB20786946FEF76BFB2078AB
:103290000121FEF705F90020FEBD2DE9F0410446AD
:1032A0000E46904654B900274723904A82A187A032
:1032B00002F020FD00BF002FFDD000BFA56B102E37
:1032C00007D0112E0BD1287800221146FEF785FA7F
:1032D00005E0287801220021FEF77FFA00BF00BF39
:1032E0000020BDE8F08173B50446A56B2878012362
:1032F0001A4601A9FEF778F901207CBD38B50446CD
:10330000A56B2878002301226946FEF7DDF9012824
:1033100002D19DF8000038BD4FF0FF30FBE72DE9EA
:10332000F041734D02F010F92878FEF7C9FA06460D
:1033300006F00E04062C06D12878FEF7A7FA0746F9
:1033400007F09E0700BF042C01D00C2C02D1694865
:1033500004F04CFF02F007F9BDE8F0812DE9F041DF
:10336000654D02F0F1F82878FEF7AAFA064606F055
:103370000E04062C06D12878FEF788FA074607F0D7
:103380009E0700BF042C01D00C2C02D15B4804F036
:103390002DFF02F0E8F8BDE8F0811CB5544C4FF465
:1033A000E1300090019820F480700190019820F0A5
:1033B0000F0008300190019820F0C00001900198A2
:1033C00020F030000190019820F4007001904C48EA
:1033D0004849C8634B4888640846DDE90012C0E9E3
:1033E0001012012202210020FDF75BFC01220321C3
:1033F0000020FDF756FC94F901000921FFF716FFA4
:1034000094F9010000F045F8234640F243123EA132
:10341000384804F06AFE384C4FF4E13000900198CF
:1034200020F480700190019820F00F000830019086
:10343000019820F0C0000190019820F03000019028
:10344000019820F4007001902D482C49C863304841
:1034500088640846DDE90012C0E910120222082142
:103460001046FDF71EFC01220B210020FDF719FC80
:1034700094F901000921FFF7D9FE94F9010000F049
:1034800008F8234640F2431222A11C4804F02DFE06
:103490001CBD00F01F020121914042094FF0E023C2
:1034A00003EB8202C2F800117047000018ED00E043
:1034B00000E400E0E489000073657269616C20211A
:1034C0003D2052545F4E554C4C0000002825732976
:1034D00020617373657274206661696C6564206134
:1034E000742025733A2564200A000000F289000048
:1034F000D100001040020010D3000010FC020010A8
:10350000D0890000FC010010756172743000000069
:10351000B8020010756172743200000010B5FCF73B
:1035200087FE02F017FC00F01FF803F0B2F904F078
:1035300096FA0B490B4802F06FFD03F053FBFCF7C2
:10354000B3FE04F098FA00F0A8FA03F067FB10BD90
:1035500010B504F077FBFFF7E1FF002010BD00007D
:1035600000000110E80A0010704717480068704713
:1035700070B5044604F066FB05461348046028460F
:1035800004F064FB70BD10B50F480068401C0E4984
:10359000086003F07CFD0446606C401E6064606C53
:1035A00018B9206C606403F05BFE04F009FA10BDEA
:1035B0000146642201FB02F000F2E7304FF47A7218
:1035C000B0FBF2F070470000D80000102DE9F04188
:1035D000074603F05CFD08B103F0D9FBD44D6C68DD
:1035E00010E00820261A06223946304602F0EFF88D
:1035F00038B903F04CFD08B103F0D7FB3046BDE805
:10360000F0812468281D8442EBD103F040FD08B10D
:1036100003F0CBFB0020F2E770B504460D461646DA
:1036200014B94FF0FF3070BD2846FFF7CFFF10B13F
:103630004FF0FF30F7E72A460821204603F02FF924
:1036400066820020A07500BFEDE770B5044654B94E
:1036500000254623B74AB8A1BBA002F04BFB00BF30
:10366000002DFDD000BF204603F03FF9002070BDC3
:103670002DE9F041DFF8B882D8F8046016E00820A0
:10368000341A276A8FB1608A10F0100F0DD12046CE
:10369000B84705462DB12A462146B3A002F02AFBC1
:1036A00003E0608A40F010006082366808F1040090
:1036B0008642E4D10020BDE8F08170B504460025C3
:1036C00054B90026B423B64A9BA19FA002F012FB76
:1036D00000BF002EFDD000BF206A90B1608A10F0BC
:1036E000100F0ED12046216A884705462DB12A4683
:1036F00021469DA002F0FEFA03E0608A40F010002F
:103700006082284670BD2DE9F04104460E46002532
:1037100054B90027D723A34A87A18BA002F0EAFA65
:1037200000BF002FFDD000BF608A10F0100F12D133
:10373000206A60B12046216A884705463DB12A4685
:10374000214689A002F0D6FA2846BDE8F081608AB9
:1037500040F010006082608A10F0080F06D0A08A46
:1037600010F0080F02D06FF00600EEE7A07D401CBD
:10377000A075A07D50B90027F5238A4A8AA172A0BE
:1037800002F0B8FA00BF002FFDD000BF606A20B180
:1037900031462046626A904705460DB1A81D02D108
:1037A00046F00800A0822846CFE770B50446002501
:1037B0005CB900264FF48873804A5FA162A002F0D2
:1037C00099FA00BF002EFDD000BFA07D10B94FF0C8
:1037D000FF3070BDA07D401EA075A07D08B1002007
:1037E000F7E7A06A18B12046A16A884705460DB1DF
:1037F000A81D01D10020A0822846EAE72DE9F0416A
:1038000004460D46164698465CB9002740F2391327
:103810006B4A49A14CA002F06DFA00BF002FFDD009
:1038200000BFA07D30B94FF0FF3001F0C1FE002095
:10383000BDE8F081E06A30B1434632462946204671
:10384000E76AB847F4E76FF0050001F0B1FE002029
:10385000EEE72DE9F04104460D46164698465CB960
:10386000002740F25F13574A33A137A002F042FA13
:1038700000BF002FFDD000BFA07D30B94FF0FF305A
:1038800001F096FE0020BDE8F081206B30B1434688
:10389000324629462046276BB847F4E76FF005000B
:1038A00001F086FE0020EEE72DE9F04104460D46CA
:1038B00017465CB9002640F27F13434A1EA122A09E
:1038C00002F018FA00BF002EFDD000BF606B30B1CF
:1038D0003A4629462046636B9847BDE8F0810020B0
:1038E000FBE770B504460D465CB900264FF4CC7377
:1038F000364A11A114A002F0FDF900BF002EFDD040
:1039000000BFA561002070BD70B504460D465CB9CE
:10391000002640F2AD132E4A07A10BA002F0EAF9EF
:1039200000BF002EFDD000BFE561002070BD00008B
:103930008C010010FE89000064657620213D205234
:10394000545F4E554C4C0000282573292061737339
:10395000657274206661696C6564206174202573EA
:103960003A2564200A000000546F20696E6974696A
:10397000616C697A65206465766963653A257320B0
:103980006661696C65642E20546865206572726F8B
:103990007220636F64652069732025640A0000004B
:1039A000138A0000228A00006465762D3E726566E7
:1039B0005F636F756E7420213D203000318A0000F6
:1039C000418A0000508A0000608A0000728A00006C
:1039D0008C8A00003E49086070472DE9F0413D485F
:1039E00000F06EF800284CD100BF04F02BF9074618
:1039F00001F0C8FD70B1384938A002F07BF900250C
:103A00005323354A3EA13FA002F074F900BF002DB8
:103A1000FDD000BF384604F019F900BF04F012F9D8
:103A200006462C4800F04CF8E8B92A4801681020F6
:103A30000C1A04F11000D0E900215160D0E9001205
:103A400011604060006000BF206F10B12046216F00
:103A50008847204602F0EBFF012808D1304604F0E9
:103A6000F5F8BDE8F081304604F0F0F8F9E73046AB
:103A700004F0ECF8606A02F022FD204602F0A1FF9B
:103A800000BF00BFEDE707E01148006810B1104823
:103A900000688047FFF7A1FFF6E71FB520201F2130
:103AA000C200204BCDE90032CDE9021000231E4AAE
:103AB0001EA1204803F0ACFA1E4803F018FB1FBDFE
:103AC00001460868884201D1012070470020FCE7C8
:103AD000DC000010D0010010A68A000046756E635D
:103AE00074696F6E5B25735D207368616C6C206E0A
:103AF0006F74207573656420696E204953520A0003
:103B000030000000282573292061737365727420CA
:103B10006661696C65642061742025733A256420B0
:103B20000A000000EC030010873A00007469646C1E
:103B300065000000740300104268116042684A602A
:103B40004160086070472DE9F04105460C469046FB
:103B5000204603F022FCB8F1000F03D0B8F1010FAA
:103B600023D105E004F110012846FFF7E5FF1CE032
:103B70002E680FE01020371A94F8310097F83110B2
:103B8000884206DA04F1100107F11000FFF7D4FFB4
:103B900002E03668AE42EDD100BFAE4204D104F17E
:103BA00010012846FFF7C8FF00BF00BF0020BDE896
:103BB000F08170B505460EE004F044F8064610208A
:103BC00029680C1A4FF0FF30E062204603F062FAD9
:103BD000304604F03BF8284601F08EFC0028EBD07C
:103BE000002070BD2DE9F04104460D4616461F46E3
:103BF00064B94FF00008D823F34AF4A1F7A002F00B
:103C000079F800BFB8F1000FFCD000BF2A460121AF
:103C1000204602F044FE204601F076FC2683E77140
:103C20000020BDE8F08170B5044654B90025F523A5
:103C3000F24AE6A1E9A002F05DF800BF002DFDD038
:103C400000BF04F11000FFF7B4FF204602F04DFE64
:103C5000002070BD2DE9F04705460E46174600BF0F
:103C600003F0F0FF814601F08DFC88B1E449E5A046
:103C700002F040F84FF0000840F21113E04AEAA1C8
:103C8000D6A002F037F800BFB8F1000FFCD000BF9B
:103C9000484603F0DBFF00BF2946012002F047FE43
:103CA000044614B92046BDE8F087204601F02CFCFC
:103CB0002683E7712046F6E770B5044600BF03F09F
:103CC000C1FF064601F05EFC78B1D849CDA002F0F4
:103CD00011F800254FF49873D44AD3A1BFA002F085
:103CE00009F800BF002DFDD000BF304603F0AEFF45
:103CF00000BF5CB900254FF49973CC4AB3A1B7A0BB
:103D000001F0F8FF00BF002DFDD000BF04F110004E
:103D1000FFF74FFF204602F054FE002070BD2DE952
:103D2000F34705465DB9002640F24D13C04AA7A1EE
:103D3000AAA001F0DFFF00BF002EFDD000BF00BF32
:103D4000BC48006818B12846BA490968884700BFCE
:103D500003F078FF074600BF00BF288B002806DD70
:103D6000288B401E2883384603F070FF63E00198DB
:103D700030B9384603F06AFF6FF00100BDE8FC87F8
:103D800000BF03F05FFF814603F081F978B9A849CD
:103D9000A9A001F0AFFF002640F26D13A44AA2A132
:103DA0008EA001F0A7FF00BF002EFDD000BF00BF16
:103DB00003F048FF804601F0E5FB78B19C4991A0F3
:103DC00001F098FF002640F26D13994A96A183A056
:103DD00001F090FF00BF002EFDD000BF404603F071
:103DE00035FF00BF484603F031FF00BF03F04FF935
:103DF00004460021E16200BF00BFEA79214605F1D7
:103E00001000FFF7A0FE019800280BDD00BF00BFE7
:103E100001AA002104F1480003F05EFD04F148000E
:103E200003F090FC384603F011FF02F009FFE06A4E
:103E300008B1E06AA2E700BF8D48006818B12846C3
:103E40008B490968884700BF002097E710B50446F2
:103E500000212046FFF763FF10BD70B5044600BF88
:103E60008448006818B1204682490968884700BF25
:103E7000002503F0E7FE064600BF00BF04F1100076
:103E800001F03AFB28B904F1100001F045FB0125CF
:103E900002E0208B401C2083304603F0D7FE012D2A
:103EA00001D102F0CDFE002070BD2DE9F0410446A5
:103EB0000E4615465CB900274FF4F2736E4A43A1D3
:103EC00046A001F017FF00BF002FFDD000BF012E5C
:103ED00010D12F4603F0B6FE804604F11000FFF724
:103EE00068FE2783404603F0B1FE02F0A9FE0020E1
:103EF000BDE8F0814FF0FF30FAE72DE9F0410446CC
:103F00000D4616465CB9002740F20F235B4A5CA1C0
:103F100032A001F0EFFE00BF002FFDD000BF2A4607
:103F20000221204602F0BBFC204601F0EDFA012000
:103F300020830020E061FF20A0760020E076E6717B
:103F4000BDE8F08170B504465CB9002540F22E232F
:103F5000504A4BA121A001F0CDFE00BF002DFDD0A5
:103F600000BF04F11000FFF724FE204602F0BDFC64
:103F7000002070BD2DE9F04105460E4600BF03F05C
:103F800061FE804601F0FEFA78B143491DA001F0C0
:103F9000B1FE002740F249233F4A23A10FA001F0C0
:103FA000A9FE00BF002FFDD000BF404603F04EFE2B
:103FB00000BF2946022002F0BAFC044614B920468C
:103FC000BDE8F0816AE00000BC8A000073656D20E6
:103FD000213D2052545F4E554C4C0000282573293A
:103FE00020617373657274206661696C6564206119
:103FF000742025733A2564200A000000C88A000056
:10400000D68A000046756E6374696F6E5B25735DBA
:10401000207368616C6C206E6F742075736564200A
:10402000696E204953520A0030000000E48A000003
:10403000F28A0000B401001046756E6374696F6EF9
:104040005B25735D207368616C6C206E6F742062F9
:10405000652075736564206265666F7265207363A1
:10406000686564756C65722073746172740A00000F
:10407000B8010010BC010010FE8A00000D8B00008A
:104080006D7574657820213D2052545F4E554C4C1F
:10409000000000001B8B00002B8B0000204601F06D
:1040A00033FA012020830020E061FF20A076002069
:1040B000E076E6712046BDE8F08170B5044600BFA9
:1040C00003F0C0FD064601F05DFA90B1F749AFF28A
:1040D000CC0001F00FFE002540F26A23F34AAFF254
:1040E000B801AFF2081001F005FE00BF002DFDD0B1
:1040F00000BF304603F0AAFD00BF6CB900254FF4A5
:104100001B73EA4AAFF28801AFF2301001F0F2FD02
:1041100000BF002DFDD000BF04F11000FFF749FDE6
:10412000204602F04EFC002070BD2DE9F347044606
:1041300000BF03F087FD814602F0A9FF002812D1DD
:10414000DB49AFF20C1001F0D5FD00264FF42273CD
:10415000D74AAFF22C11AFF27C1001F0CBFD00BFBB
:10416000002EFDD000BF00BF03F06CFD804601F0C3
:1041700009FA90B1CE49AFF2741001F0BBFD0026F0
:104180004FF42273CA4AAFF26011AFF2B01001F0DF
:10419000B1FD00BF002EFDD000BF404603F056FD2C
:1041A00000BF484603F052FD00BF6CB9002640F244
:1041B0008A23BF4AAFF23811AFF2E01001F09AFD46
:1041C00000BF002EFDD000BF03F03CFD074602F00B
:1041D0005EFF054600BFB748006818B12046B549E4
:1041E0000968884700BF00BF00BF0020E862E0699F
:1041F000A84203D1E07E401CE07649E0208B0028F5
:104200000ADD208B401E2083E56195F83100A07601
:10421000E07E401CE0763BE0019848B96FF0010079
:10422000E862384603F012FD6FF00100BDE8FC873C
:1042300000BF00BF95F83100E16991F83110884264
:1042400005DA05F131020221E06903F003F9E279B0
:10425000294604F11000FFF776FC019800280BDDD9
:1042600000BF00BF01AA002105F1480003F034FBA4
:1042700005F1480003F066FA384603F0E7FC02F067
:10428000DFFCE86A08B1E86AD0E703F0DBFC074628
:10429000384603F0DBFC00BF8748006818B12046B1
:1042A00085490968884700BF0020BFE72DE9F0472E
:1042B0000446002700BF03F0C5FC824602F0E7FE7B
:1042C000002812D17D49AFF2902001F013FD0026A5
:1042D00040F20D33794AAFF2B021AFF2003001F075
:1042E00009FD00BF002EFDD000BF00BF03F0AAFCF7
:1042F000814601F047F990B17049AFF2F82001F022
:10430000F9FC002640F20D336C4AAFF2E421AFF223
:10431000343001F0EFFC00BF002EFDD000BF484656
:1043200003F094FC00BF504603F090FC00BF02F085
:10433000AEFE054603F086FC804600BF00BF00BF0E
:104340005F48006818B120465D490968884700BF8A
:10435000E069A84209D04FF0FF30E862404603F020
:1043600075FC4FF0FF30BDE8F087E07E401EE07640
:10437000E07E08BBA07EE16991F83110884205D04B
:1043800004F11A020221E06903F064F804F110005C
:1043900001F0B2F888B9102021690D1A00BF00BFE2
:1043A000E56195F83100A076E07E401CE07604F1EE
:1043B000100001F0B1F8012706E0208B401C20839B
:1043C0000020E061FF20A076404603F03FFC012F73
:1043D00001D102F035FC0020C5E703464FF0FF3065
:1043E00070472DE9F04104460D46164664B9002792
:1043F00040F27B33334A34A1AFF2204001F07AFC23
:1044000000BF002FFDD000BF2A460321204602F046
:1044100046FAE671204601F077F80020A061BDE879
:10442000F08170B5044664B9002540F297332B4AF9
:1044300025A1AFF2584001F05DFC00BF002DFDD07A
:1044400000BF04F11000FFF7B4FB204602F04DFA64
:10445000002070BD2DE9F04105460E4600BF03F077
:10446000F1FB804601F08EF890B11D49AFF26C402F
:1044700001F040FC00274FF46C73194AAFF2584129
:10448000AFF2A84001F036FC00BF002FFDD000BF06
:10449000404603F0DBFB00BF2946032002F047FA49
:1044A000044614B92046BDE8F0811BE03B8B0000B8
:1044B0004B8B0000B4010010B8010010598B0000B4
:1044C000BC0100106A8B00006576656E7420213D8A
:1044D0002052545F4E554C4C00000000788B000079
:1044E000888B0000E671204601F00EF80020A061E4
:1044F0002046BDE8F08170B504466CB9002540F255
:10450000CE33FC4AAFF24001AFF2305001F0F2FB83
:1045100000BF002DFDD000BF00BF03F093FB064697
:1045200001F030F890B1F349AFF2285001F0E2FB0E
:1045300000254FF47473EF4AAFF21451AFF2645098
:1045400001F0D8FB00BF002DFDD000BF304603F0C6
:104550007DFB00BF04F11000FFF72BFB204602F0AB
:1045600030FA002070BD2DE9F05F04460F467CB99B
:104570004FF0000A40F2EF33DF4AAFF2B401AFF27E
:10458000A45001F0B7FB00BFBAF1000FFCD000BF90
:104590001FB94FF0FF30BDE8F09F4FF0000800BF9B
:1045A000D648006818B12046D4490968884700BF3A
:1045B00003F048FB8346A0693843A06104F1100072
:1045C00000F09AFFC0BB266932E01020351A4FF088
:1045D000FF3995F83C0010F0010F08D0A86BA169D5
:1045E0000840A96B884211D14FF000090EE095F800
:1045F0003C0010F0020F09D0A86BA169084205D059
:10460000A86BA1690840A8634FF000093668B9F1AA
:10461000000F0DD195F83C0010F0040F03D0A069F5
:10462000A96B8843A061284602F034FD4FF00108D1
:1046300004F110008642C8D1584603F007FBB8F1D8
:10464000010F01D102F0FCFA0020A4E72DE9FF4F91
:1046500083B005460E461746DDF8408000BF03F0E4
:10466000F1FA029002F013FD002814D1A449AFF230
:10467000386001F03FFB4FF0000A40F24F43A04A80
:10468000AFF25C61AFF2AC6001F034FB00BFBAF195
:10469000000FFCD000BF00BF03F0D4FA019000F07F
:1046A00071FFA0B19649AFF2A46001F023FB4FF077
:1046B000000A40F24F43924AAFF29461AFF2E460D5
:1046C00001F018FB00BFBAF1000FFCD000BF019849
:1046D00003F0BCFA00BF029803F0B8FA00BF7DB93E
:1046E0004FF0000A40F25243854AAFF22421AFF264
:1046F000147001F0FFFA00BFBAF1000FFCD000BF48
:1047000026B94FF0FF3007B0BDE8F08F4FF0FF390A
:1047100002F0BDFC04460021E16200BF7948006858
:1047200018B1284677490968884700BF03F08AFA1C
:10473000834617F0010F06D0A8693040B0421BD164
:104740004FF0000918E017F0020F05D0A8693042B9
:1047500012D04FF000090FE04FF0000A4FF48E63C3
:10476000674AAFF23C71AFF28C7001F0C3FA00BF40
:10477000BAF1000FFCD000BFB9F1000F0AD1A8694F
:104780003040C8F8000017F0040F2ED0A869B043DD
:10479000A8612AE0069818B96FF00100E06224E0F1
:1047A000A66384F83C70EA79214605F11000FFF712
:1047B000CAF90698002809DD06AA002104F148007C
:1047C00003F08AF804F1480002F0BCFF584603F0F9
:1047D0003DFA02F035FAE06A08B1E06A93E703F0C7
:1047E00031FA8346A06BC8F80000584603F02EFA51
:1047F00000BF4548006818B1284643490968884702
:1048000000BFE06A7FE72DE9F04104460D4690467F
:104810006CB9002640F2BE433C4AAFF25431AFF6C9
:10482000440001F067FA00BF002EFDD000BF012D4B
:1048300010D103F007FA074604F11000FFF7B9F9A9
:104840000020A061384603F001FA02F0F9F90020D7
:10485000BDE8F0814FF0FF30FAE72DE9F04704465C
:104860000D4616461F46DDF8209074B94FF000083B
:1048700040F2EB43264A27A1AFF6A00001F03AFA36
:1048800000BFB8F1000FFCD000BF2A46042120462B
:1048900002F005F884F80790204600F035FEA66186
:1048A000A7830020E0832084608404F1240000F0CA
:1048B00020FE0020BDE8F08770B5044664B90025ED
:1048C00040F20E53174A13A1AFF6F00001F012FAAE
:1048D00000BF002DFDD000BF04F11000FFF769F903
:1048E00004F12400FFF765F9204601F0FEFF0020E7
:1048F00070BD0000988B0000A88B0000BC01001068
:10490000B68B0000B4010010B8010010C48B000089
:10491000D58B00006D6220213D2052545F4E554CD6
:104920004C000000E08B00002DE9F04705460E46E4
:10493000174600BF03F086F9814600F023FEA0B1C0
:10494000FD49AFF6401001F0D5F94FF0000840F2F4
:104950002A53F94AAFF63011AFF6801001F0CAF9C8
:1049600000BFB8F1000FFCD000BF484603F06EF95D
:1049700000BF2946042001F0DAFF044614B920469E
:10498000BDE8F087E771204600F0BEFDA683A18B4D
:10499000880001F0ADFBA061A06920B9204602F0BB
:1049A00010F80020ECE70020E0832084608404F10C
:1049B000240000F09EFD2046E2E770B5044600BFEB
:1049C00003F040F9064600F0DDFD90B1DB49AFF69B
:1049D000CC1001F08FF9002540F25553D74AAFF6BD
:1049E000B811AFF6082001F085F900BF002DFDD009
:1049F00000BF304603F02AF900BF6CB900254FF420
:104A0000AB63CE4AAFF2F401AFF6302001F072F999
:104A100000BF002DFDD000BF04F11000FFF7C9F862
:104A200004F12400FFF7C5F8A06901F048FD204615
:104A300001F0C7FF002070BD2DE9F74F04460F4677
:104A40007CB94FF0000840F28553BD4AAFF23C11EB
:104A5000AFF6782001F04EF900BFB8F1000FFCD09E
:104A600000BF002602F013FB054600BFB5480068F2
:104A700018B12046B3490968884700BF03F0E2F83F
:104A80008146E08BA18B884208D1029830B9484614
:104A900003F0DCF86FF00200BDE8FE8F7BE0002041
:104AA000E862029828B9484603F0D0F86FF0020097
:104AB000F2E700BF03F0C6F8834602F0E8FAA0B9B7
:104AC0009F49AFF68C2001F015F94FF000084FF424
:104AD000B5639B4AAFF6B021AFF6003001F00AF99A
:104AE00000BFB8F1000FFCD000BF00BF03F0AAF870
:104AF000824600F047FDA0B19149AFF6F82001F0E1
:104B0000F9F84FF000084FF4B5638D4AAFF6E8218D
:104B1000AFF6383001F0EEF800BFB8F1000FFCD06E
:104B200000BF504603F092F800BF584603F08EF8DD
:104B300000BFE279294604F12400FFF704F8029847
:104B400000280EDDFEF711FD064600BF00BF02AAD9
:104B5000002105F1480002F0BFFE05F1480002F017
:104B6000F1FD484603F072F802F06AF8E86A08B10D
:104B7000E86A91E703F066F88146029800280ADDAA
:104B8000FEF7F3FC861B0298801B02900298002817
:104B900001DA00200290E08BA18B88423FF47FAFC6
:104BA000218CA06940F82170208C401C2084208C2E
:104BB000A18B884201DB00202084E08B401CE08335
:104BC00004F1100000F098FC50B904F1100000F05E
:104BD000A3FC484603F03AF802F032F800205BE705
:104BE000484603F033F8002056E770B504460D46FA
:104BF000002229462046FFF71FFF70BD2DE9F74F21
:104C000004460F467CB94FF0000840F216634E4A46
:104C1000AFF20031AFF63C4001F06CF800BFB8F1E4
:104C2000000FFCD000BF002602F031FA054600BF9D
:104C30004648006818B1204644490968884700BFC3
:104C400003F000F88146E08B40B9029830B948463D
:104C500002F0FCFF6FF00100BDE8FE8F89E000204C
:104C6000E862029830B9484602F0F0FF6FF00100A8
:104C7000E862F1E700BF02F0E5FF834602F007FAC1
:104C8000A0B93149AFF6504001F034F84FF00008B8
:104C900040F23B632C4AAFF67041AFF6C04001F0E2
:104CA00029F800BFB8F1000FFCD000BF00BF02F030
:104CB000C9FF824600F066FCA0B12349AFF6BC40B4
:104CC00001F018F84FF0000840F23B631E4AAFF6BF
:104CD000A841AFF6F84001F00DF800BFB8F1000FA1
:104CE000FCD000BF504602F0B1FF00BF584602F0B2
:104CF000ADFF00BFE279294604F11000FEF723FF63
:104D0000029800280EDDFEF730FC064600BF00BF0B
:104D100002AA002105F1480002F0DEFD05F148007D
:104D200002F010FD484602F091FF01F089FFE86AA9
:104D300070B1E86A90E70000ED8B0000FA8B00008C
:104D4000078C0000BC010010178C0000B40100109B
:104D500002F078FF8146029800280ADDFEF705FC84
:104D6000861B0298801B02900298002801DA00201E
:104D70000290E08B00283FF472AF618CA06950F87C
:104D800021003860608C401C6084608CA18B88425C
:104D900001DB00206084E08B401EE08304F12400EE
:104DA00000F0AAFB98B904F1240000F0B5FB4846D6
:104DB00002F04CFF00BFFB48006818B12046F949DB
:104DC0000968884700BF01F03BFF002044E74846E0
:104DD00002F03CFF00BFF348006818B12046F149DB
:104DE0000968884700BF002036E72DE9F0410446F6
:104DF0000D4690466CB9002640F29963EA4AAFF23C
:104E0000EC41AFF6286000F075FF00BF002EFDD02A
:104E100000BF012D16D102F015FF074604F1100066
:104E2000FEF7C7FE04F12400FEF7C3FE0020E08376
:104E300020846084384602F009FF01F001FF002061
:104E4000BDE8F0814FF0FF30FAE72DE9F05F04464E
:104E50000F4690469946DDF828A074B94FF0000B34
:104E600040F2D563D14AD2A1AFF6906000F042FF84
:104E700000BFBBF1000FFCD000BF3A460521204621
:104E800001F00DFD0B98E071204600F03DFBC4F8E9
:104E9000188009F1030020F00300A083A08B001DFF
:104EA000BAFBF0F0E08300206062A062E0620025BF
:104EB00008E0A08B001DA16905FB0016E06A3060C8
:104EC000E6626D1CE08BA842F3DC00202084BDE884
:104ED000F09F70B5044664B9002540F20673B84AE5
:104EE000B3A1AFF6087000F005FF00BF002DFDD0A4
:104EF00000BF04F11000FEF75CFE204601F0F5FC57
:104F0000002070BD70B5044600BF02F09BFE06464F
:104F100000F038FB90B1AB49AFF6187000F0EAFE34
:104F200000254FF4EC63A74AAFF60471AFF6547056
:104F300000F0E0FE00BF002DFDD000BF304602F0C3
:104F400085FE00BF64B9002540F263739D4A98A1B5
:104F5000AFF6787000F0CEFE00BF002DFDD000BF90
:104F600004F11000FEF725FEA06901F0A8FA204622
:104F700001F027FD002070BD2DE9F84F0746884657
:104F800091469A4600BF02F05DFE009000F0FAFAEA
:104F9000A0B18D49AFF6947000F0ACFE4FF0000B5D
:104FA00040F22673884AAFF68071AFF6D07000F0F9
:104FB000A1FE00BFBBF1000FFCD000BF009802F0C3
:104FC00045FE00BF3946052001F0B1FC044614B986
:104FD0002046BDE8F88F84F807A0204600F094FA38
:104FE00008F1030020F00300A083A4F81E90A18B19
:104FF000091DE28B01FB02F001F07AF8A061A069C3
:1050000020B92046FFF77EFF0020E2E70020606223
:10501000A062E062002508E0A08B001DA16905FBED
:105020000016E06A3060E6626D1CE08BA842F3DC9B
:10503000002020842046CCE72DE9F04704460F46A7
:1050400016466CB94FF0000840F289735F4A58A1C8
:105050005F4800F04FFE00BFB8F1000FFCD000BF6A
:105060006FB94FF0000840F28A73584A59A1584866
:1050700000F040FE00BFB8F1000FFCD000BF6EB9D9
:105080004FF0000840F28B73504A57A1504800F08F
:1050900031FE00BFB8F1000FFCD000BFA08BB042C2
:1050A00003D24FF0FF30BDE8F08700BF51480068E1
:1050B00018B120464F490968884700BF02F0C2FD79
:1050C0008146E56A2DB9484602F0C0FD6FF0020046
:1050D000E9E72868E062484602F0B8FD0020286051
:1050E00032463946281D00F0A8FA02F0ABFD814691
:1050F000A06A08B1A06A0560A562606A00B965622D
:10510000208C401C208404F1100000F0F5F950B907
:1051100004F1100000F000FA484602F097FD01F09B
:105120008FFD0020BFE7484602F090FD0020BAE75F
:105130002DE9F04704460F4616466CB94FF00008BB
:1051400040F2E1732C4A1AA1214800F0D3FD00BFC0
:10515000B8F1000FFCD000BF6FB94FF0000840F26B
:10516000E273254A1BA11A4800F0C4FD00BFB8F144
:10517000000FFCD000BF6EB94FF0000840F2E3739F
:105180001D4A19A1124800F0B5FD00BFB8F1000F8B
:10519000FCD000BFA08BB04230D24FF0FF30BDE852
:1051A000F0870000B8010010228C0000308C000055
:1051B0006D7120213D2052545F4E554C4C00000033
:1051C0003B8C0000558C0000488C0000628C000075
:1051D000DC3F000062756666657220213D205254F6
:1051E0005F4E554C4C00000073697A6520213D20CC
:1051F00030000000BC0100106D8C000000BFCC48E6
:10520000006818B12046CA490968884700BF02F003
:1052100019FD8146E56A35B9484602F017FD6FF081
:105220000200BDE8F0872868E062484602F00EFD03
:1052300032463946281D00F000FA02F003FD81468F
:10524000606A28606562A06A00B9A562208C401C73
:10525000208404F1100000F04FF950B904F110005F
:1052600000F05AF9484602F0F1FC01F0E9FC002098
:10527000D7E7484602F0EAFC0020D2E72DE9FF4FCD
:1052800083B004460F46904674B94FF0000A40F6CA
:105290003903A84AAFF2E801A74800F02BFD00BF90
:1052A000BAF1000FFCD000BF77B94FF0000A40F60A
:1052B0003A03A04AAFF2E4019F4800F01BFD00BF93
:1052C000BAF1000FFCD000BFB8F1000F0ED14FF0C3
:1052D000000A40F63B03974AAFF2F401964800F00B
:1052E00009FD00BFBAF1000FFCD000BF4FF000096C
:1052F00001F0CDFE054600BF9048006818B1204679
:105300008E490968884700BF02F09CFC8346208CC8
:1053100048B9069838B9584602F098FC6FF0010079
:1053200007B0BDE8F08F7CE000BF02F08BFC02907C
:1053300001F0ADFE98B97F497F485C3000F0DAFC9F
:105340004FF0000A40F651037A4AAFF25C117A48F6
:1053500000F0D0FC00BFBAF1000FFCD000BF00BFCE
:1053600002F070FC019000F00DF998B1714972489B
:10537000283000F0BFFC4FF0000A40F651036D4AA0
:10538000AFF294116C4800F0B5FC00BFBAF1000F09
:10539000FCD000BF019802F059FC00BF029802F057
:1053A00055FC00BF0020E862069830B9584602F06C
:1053B0004DFC6FF00100E862B2E7E279294604F1A2
:1053C0001000FEF7C0FB069800280EDDFEF7CDF8B2
:1053D000814600BF00BF06AA002105F1480002F087
:1053E0007BFA05F1480002F0ADF9584602F02EFCB8
:1053F00001F026FCE86A08B1E86A91E702F022FCB5
:105400008346069800280CDDFEF7AFF8A0EB0909EB
:105410000698A0EB090006900698002801DA002003
:105420000690208C00283FF47FAF666A3068606287
:10543000A06AB04201D10020A062208C401E2084CE
:10544000584602F003FCA08B404501D2A08B00E03F
:1054500040460246311D384600F0EFF802F0F2FBFC
:105460008346E06A3060E662584602F0EFFB00BF18
:105470003348006818B1204631490968884700BFA1
:1054800000204DE72DE9F04704460E46914664B9E9
:10549000002740F6BF032B4AAFF2EC21264800F06C
:1054A00029FC00BF002FFDD000BF012E1ED102F04D
:1054B000C9FB804604F11000FEF77BFB0AE0656A39
:1054C00028686062A06AA84201D10020A062E06A58
:1054D0002860E562606A0028F1D12084404602F02D
:1054E000B5FB01F0ADFB0020BDE8F0874FF0FF30C9
:1054F000FAE740600060704701460868884201D1C1
:10550000012070470020FCE710B5044604F11000AC
:10551000FFF7EFFF002010BD70B504461020216892
:105520000D1A00BF00BF284601F0B4FD002070BD79
:10553000BC0100107A8C0000DC3F0000B4010010B8
:10554000B8010010858C000010B500BF00BF02F04C
:1055500079FB04460D480078401C0C490870204631
:1055600002F074FB10BD10B500BF00BF02F06AFB73
:10557000044606480078401E04490870204602F0A0
:1055800065FB10BD0148007870470000E000001086
:1055900010B5FFF7F7FF10B1FB48006810BD01F030
:1055A00076FD044614B9F8480068F7E7E06AF5E7C5
:1055B00070B50446FFF7E6FF10B1F348046070BD14
:1055C00001F065FD054615B9EF480460F7E7EC62A8
:1055D00000BFF4E710B5FFF7D5FF08B1EA4810BDEA
:1055E00001F055FD044614B104F12C00F7E7E6483C
:1055F000F5E7F0B50C460546E6B2042A15D310F0DF
:10560000030F12D1014646EA062343EA034304E0AE
:1056100008C108C108C108C1103A102AF8D201E037
:1056200008C1121F042AFBD20D4601E005F8016BE8
:105630001700A2F10102F9D1F0BD2DE9F0410F46AA
:10564000164604463D463346102B26D305F0030C80
:1056500004F003085CEA080C1FD121462A4610E03A
:1056600052F804CB41F804CB52F804CB41F804CBF8
:1056700052F804CB41F804CB52F804CB41F804CBE8
:10568000103B102BECD204E052F804CB41F804CBD1
:105690001B1F042BF8D20C46154603E015F801CB6E
:1056A00004F801CB5FEA030CA3F10103F6D1BDE8D6
:1056B000F08130B58C46014663468B4210D29C186F
:1056C0008C420DD91144134405E05C1E2346257815
:1056D0004C1E214625701400A2F10102F5D108E00C
:1056E00003E013F8014B01F8014B1400A2F1010291
:1056F000F7D130BD70B5034600201C468C460AE049
:1057000025789CF80060AD1B280000D005E0641CE3
:105710000CF1010C521E002AF2D800BF70BD0146E8
:105720000A4600E0521C10780028FBD1501A70473E
:10573000F0B506460F463846FFF7F1FF05460DB9AE
:105740003046F0BD3046FFF7EAFF044609E0641E2C
:105750002A4639463046FFF7CDFF08B93046F0E714
:10576000761CAC42F3DA0020EBE710B503468C461A
:1057700000BF13F8011B1CF8012B412902DB5A2939
:1057800000DC2031412A02DB5A2A00DC203291421F
:1057900001D10029EDD1881A10BD30B50346A2B160
:1057A00018468C4600BF1CF8015B00F8015B3DB950
:1057B00002E0002400F8014B541E2200F9D102E05F
:1057C000541E2200EFD100BF00BF184630BD30B5D7
:1057D000034600200BE011F8015B1C78641B64B2E7
:1057E000200002D113F8015B05B902E0521E002A25
:1057F000F1D100BF30BD024601E0521C491C1078B7
:1058000018B110780B789842F7D010780B78C01A3E
:10581000704770B504462046FFF781FF461C3046AE
:1058200000F066FC05460DB9002070BD32462146E9
:105830002846FFF702FF2846F7E770472DE9F04FAB
:1058400085B00D469C469DED0E0ADDE90F7410EE05
:10585000103A14F0400F02D0DFF8308101E0DFF899
:105860003081CDF8008014F0100F01D024F0010435
:1058700014F0010F02D04FF0300801E04FF0200883
:10588000C246002614F0020F0DD0002A02DA2D269F
:10589000524208E014F0040F01D02B2603E014F06C
:1058A000080F00D02026002142B94FF0300B884667
:1058B000491C0DF1040909F808B01DE01AE0E146A1
:1058C000B9F10A0F08D14FF00A0BB2FBFBFE0BFB3C
:1058D0001E28B2FBFBF202E002F00F08120900BF23
:1058E000DDF8009019F808B08846491C0DF104094C
:1058F00009F808B0002AE2D1B94200DD0F46DB1BEF
:1059000014F0110F10D116B1002B00DD5B1E06E064
:10591000A84203D84FF0200880F80080401CB3F163
:105920000008A3F10103F3DC26B1A84201D80670F8
:105930005B1E401C14F0100F0AD104E0A84201D8ED
:1059400080F800A0401CB3F10008A3F10103F5DCCE
:1059500006E0A84203D84FF0300880F80080401CD1
:10596000B8467F1E8845F4DC08E0A84205D80DF152
:10597000040818F8018080F80080401CB1F100088C
:10598000A1F10101F1DC0CE0E8000010A48D0000A1
:10599000938D0000A84203D84FF0200880F80080C3
:1059A000401CB3F10008A3F10103F3DC05B0BDE82E
:1059B000F08F0146002009E00B685A1C0A601A7833
:1059C00000EB800302EB4302A2F130000A68127878
:1059D000303A0A2AF0D370472DE9FF4F89B080464C
:1059E00044460A984044461E464504D24FF0FF36CE
:1059F000A6EB08000A906DE10B980078252806D0E8
:105A0000B44202D80B9800782070641C5FE1002536
:105A100026E00B98401C0B900B9800782D2802D1A3
:105A200045F010051CE00B9800782B2802D145F0BA
:105A3000040515E00B980078202802D145F00805F0
:105A40000EE00B980078232802D145F0200507E0EE
:105A50000B980078302802D145F0010500E000E005
:105A6000D7E700BF4FF0FF370B98007830380A288F
:105A700004D20BA8FFF79DFF07460EE00B980078B5
:105A80002A280AD10B98401C0B900C9880C80C90C7
:105A9000002F02DA7F4245F010054FF0FF390B98D6
:105AA00000782E281CD10B98401C0B900B98007886
:105AB00030380A2804D20BA8FFF77BFF81460AE0A2
:105AC0000B9800782A2806D10B98401C0B900C9854
:105AD00050F8049B0C90B9F1000F01DA4FF0000967
